{
  "contractName": "DonorDarah",
  "abi": [
    {
      "constant": true,
      "inputs": [],
      "name": "jumlahSuply",
      "outputs": [
        {
          "name": "",
          "type": "uint256"
        }
      ],
      "payable": false,
      "stateMutability": "view",
      "type": "function"
    },
    {
      "constant": true,
      "inputs": [
        {
          "name": "",
          "type": "address"
        }
      ],
      "name": "paraPendonor",
      "outputs": [
        {
          "name": "",
          "type": "bool"
        }
      ],
      "payable": false,
      "stateMutability": "view",
      "type": "function"
    },
    {
      "constant": true,
      "inputs": [
        {
          "name": "",
          "type": "uint256"
        }
      ],
      "name": "suplyDarah",
      "outputs": [
        {
          "name": "id",
          "type": "uint256"
        },
        {
          "name": "golonganDarah",
          "type": "string"
        },
        {
          "name": "jumlahDonor",
          "type": "uint256"
        }
      ],
      "payable": false,
      "stateMutability": "view",
      "type": "function"
    },
    {
      "inputs": [],
      "payable": false,
      "stateMutability": "nonpayable",
      "type": "constructor"
    },
    {
      "constant": false,
      "inputs": [
        {
          "name": "_SUplyDarahId",
          "type": "uint256"
        }
      ],
      "name": "Donor",
      "outputs": [],
      "payable": false,
      "stateMutability": "nonpayable",
      "type": "function"
    },
    {
      "constant": false,
      "inputs": [
        {
          "name": "_SUplyDarahId",
          "type": "uint256"
        }
      ],
      "name": "terimaDonor",
      "outputs": [],
      "payable": false,
      "stateMutability": "nonpayable",
      "type": "function"
    }
  ],
  "bytecode": "0x608060405234801561001057600080fd5b5061005e6040805190810160405280600181526020017f410000000000000000000000000000000000000000000000000000000000000081525061014a640100000000026401000000009004565b6100ab6040805190810160405280600181526020017f420000000000000000000000000000000000000000000000000000000000000081525061014a640100000000026401000000009004565b6100f86040805190810160405280600281526020017f414200000000000000000000000000000000000000000000000000000000000081525061014a640100000000026401000000009004565b6101456040805190810160405280600181526020017f4f0000000000000000000000000000000000000000000000000000000000000081525061014a640100000000026401000000009004565b61026c565b600260008154809291906001019190505550606060405190810160405280600254815260200182815260200160008152506001600060025481526020019081526020016000206000820151816000015560208201518160010190805190602001906101b69291906101c7565b506040820151816002015590505050565b828054600181600116156101000203166002900490600052602060002090601f016020900481019282601f1061020857805160ff1916838001178555610236565b82800160010185558215610236579182015b8281111561023557825182559160200191906001019061021a565b5b5090506102439190610247565b5090565b61026991905b8082111561026557600081600090555060010161024d565b5090565b90565b6105048061027b6000396000f30060806040526004361061006d576000357c0100000000000000000000000000000000000000000000000000000000900463ffffffff1680630fb2acc1146100725780634c19c0b01461009f578063a0bd7401146100ca578063ca5918a614610125578063fec7cc08146101d9575b600080fd5b34801561007e57600080fd5b5061009d60048036038101908080359060200190929190505050610206565b005b3480156100ab57600080fd5b506100b46102fb565b6040518082815260200191505060405180910390f35b3480156100d657600080fd5b5061010b600480360381019080803573ffffffffffffffffffffffffffffffffffffffff169060200190929190505050610301565b604051808215151515815260200191505060405180910390f35b34801561013157600080fd5b5061015060048036038101908080359060200190929190505050610321565b6040518084815260200180602001838152602001828103825284818151815260200191508051906020019080838360005b8381101561019c578082015181840152602081019050610181565b50505050905090810190601f1680156101c95780820380516001836020036101000a031916815260200191505b5094505050505060405180910390f35b3480156101e557600080fd5b50610204600480360381019080803590602001909291905050506103e3565b005b6000803373ffffffffffffffffffffffffffffffffffffffff1673ffffffffffffffffffffffffffffffffffffffff16815260200190815260200160002060009054906101000a900460ff16151561025d57600080fd5b60008111801561026f57506002548111155b151561027a57600080fd5b60016000828152602001908152602001600020600201600081548092919060019003919050555060008060003373ffffffffffffffffffffffffffffffffffffffff1673ffffffffffffffffffffffffffffffffffffffff16815260200190815260200160002060006101000a81548160ff02191690831515021790555050565b60025481565b60006020528060005260406000206000915054906101000a900460ff1681565b6001602052806000526040600020600091509050806000015490806001018054600181600116156101000203166002900480601f0160208091040260200160405190810160405280929190818152602001828054600181600116156101000203166002900480156103d35780601f106103a8576101008083540402835291602001916103d3565b820191906000526020600020905b8154815290600101906020018083116103b657829003601f168201915b5050505050908060020154905083565b6000803373ffffffffffffffffffffffffffffffffffffffff1673ffffffffffffffffffffffffffffffffffffffff16815260200190815260200160002060009054906101000a900460ff1615151561043b57600080fd5b60008111801561044d57506002548111155b151561045857600080fd5b60016000803373ffffffffffffffffffffffffffffffffffffffff1673ffffffffffffffffffffffffffffffffffffffff16815260200190815260200160002060006101000a81548160ff0219169083151502179055506001600082815260200190815260200160002060020160008154809291906001019190505550505600a165627a7a72305820d03cf96b4079590eacb958096d4c2505f80c61b314dd8df8f2d8bf0d5d1157d20029",
  "source": "// SPDX-License-Identifier: MIT\npragma solidity >=0.4.22 <0.9.0;\n\ncontract DonorDarah {\n    struct SUplyDarah {\n        uint id;\n        string golonganDarah;\n        uint jumlahDonor;\n    }\n    mapping(address => bool) public paraPendonor;\n    mapping(uint => SUplyDarah) public suplyDarah;\n    uint public jumlahSuply;\n\n    constructor() public {\n        tambahSuply(\"A\");\n        tambahSuply(\"B\");\n        tambahSuply(\"AB\");\n        tambahSuply(\"O\");\n    }\n\n    function tambahSuply(string memory _nama) private {\n        jumlahSuply++;\n        suplyDarah[jumlahSuply] = SUplyDarah(jumlahSuply, _nama, 0);\n    }\n\n\n\n    function Donor(uint _SUplyDarahId) public {\n        require(!paraPendonor[msg.sender]);\n        require(_SUplyDarahId > 0 && _SUplyDarahId <= jumlahSuply);\n        paraPendonor[msg.sender] = true;\n        suplyDarah[_SUplyDarahId].jumlahDonor++;\n    }\n\n    function terimaDonor(uint _SUplyDarahId) public {\n        require(paraPendonor[msg.sender]);\n        require(_SUplyDarahId > 0 && _SUplyDarahId <= jumlahSuply);\n        suplyDarah[_SUplyDarahId].jumlahDonor--;\n        paraPendonor[msg.sender] = false;\n    }\n}\n",
  "sourcePath": "D:\\program\\Smt5\\Blockchain\\project-blockchain\\contracts\\DonorDarah.sol",
  "compiler": {
    "name": "solc",
    "version": "0.4.22+commit.4cb486ee.Emscripten.clang"
  },
  "schemaVersion": "3.4.16",
  "updatedAt": "2023-12-15T05:45:06.281Z",
  "networkType": "ethereum",
  "devdoc": {
    "methods": {}
  },
  "userdoc": {
    "methods": {}
  }
}